:020000003D2D94
:0E0006008312031361088A006008820008005C
:1000140083120313E201E30100306302031D142879
:1000240008306202031846286808F0006908F100E5
:10003400F00DF10D7010F00DF10D7010F00DF10DCB
:1000440070106208F00763080318013EF1072030BE
:10005400F00711300318013EF1077008E000710841
:10006400E10003208A110A1286006208583E8400C7
:1000740000088800A630FD00FD0B3E280000880122
:0A008400E20A0319E30A0E2808003F
:10008E0083120313E201E30100306302031D5128C2
:10009E0008306202031883286808F0006908F1002E
:1000AE00F00DF10D7010F00DF10D7010F00DF10D51
:1000BE0070106208F00763080318013EF107403024
:1000CE00F0070E300318013EF1077008E0007108CA
:1000DE00E10003208A110A1286006208583E84004D
:1000EE0000088800A630FD00FD0B7B28000088016B
:0A00FE00E20A0319E30A4B28080088
:1001080083120313E201E30100306302031D8E280A
:10011800083062020318C0286808F0006908F10076
:10012800F00DF10D7010F00DF10D7010F00DF10DD6
:1001380070106208F00763080318013EF1070030E9
:10014800F00710300318013EF1077008E00071084D
:10015800E10003208A110A1286006208583E8400D2
:1001680000088800A630FD00FD0BB82800008801B3
:0A017800E20A0319E30A88280800D0
:1001820083120313E201E30100306302031DCB2853
:10019200083062020318FD286808F0006908F100BF
:1001A200F00DF10D7010F00DF10D7010F00DF10D5C
:1001B20070106208F00763080318013EF107C830A7
:1001C200F00710300318013EF1077008E0007108D3
:1001D200E10003208A110A1286006208583E840058
:1001E20000088800A630FD00FD0BF52800008801FC
:0A01F200E20A0319E30AC528080019
:1001FC0083120313E201E30100306302031D08299B
:10020C000830620203183A296808F0006908F10006
:10021C00F00DF10D7010F00DF10D7010F00DF10DE1
:10022C0070106208F00763080318013EF1074030B4
:10023C00F0070F300318013EF1077008E000710859
:10024C00E10003208A110A1286006208583E8400DD
:10025C0000088800A630FD00FD0B32290000880143
:0A026C00E20A0319E30A0229080060
:1002760083120313E201E30100306302031D4529E3
:1002860008306202031877296808F0006908F1004F
:10029600F00DF10D7010F00DF10D7010F00DF10D67
:1002A60070106208F00763080318013EF107C030BA
:1002B600F0070E300318013EF1077008E0007108E0
:1002C600E10003208A110A1286006208583E840063
:1002D60000088800A630FD00FD0B6F29000088018C
:0A02E600E20A0319E30A3F290800A9
:1002F00083120313E201E30100306302031D82292C
:10030000083062020318B4296808F0006908F10097
:10031000F00DF10D7010F00DF10D7010F00DF10DEC
:1003200070106208F00763080318013EF1074830B7
:10033000F00710300318013EF1077008E000710863
:10034000E10003208A110A1286006208583E8400E8
:1003500000088800A630FD00FD0BAC2900008801D4
:0A036000E20A0319E30A7C290800F1
:10036A0083120313E201E30100306302031DBF2974
:10037A00083062020318F1296808F0006908F100E0
:10038A00F00DF10D7010F00DF10D7010F00DF10D72
:10039A0070106208F00763080318013EF107F03095
:1003AA00F0070B300318013EF1077008E0007108EE
:1003BA00E10003208A110A1286006208583E84006E
:1003CA0000088800A630FD00FD0BE929000088011D
:0A03DA00E20A0319E30AB92908003A
:1003E40083120313E201E30100306302031DFC29BD
:1003F400083062020318252A6808F0006908F10031
:10040400F00DF10D7010F00DF10D7010F00DF10DF7
:1004140070106208F00763080318013EF1077008C2
:10042400203E8400000886006208583E84000008CC
:100434008800A630FD00FD0B1D2A00008801E20A99
:080444000319E30AF629080080
:10044C0083120313E201E30100306302031D302A1F
:10045C00083062020318622A6808F0006908F1008B
:10046C00F00DF10D7010F00DF10D7010F00DF10D8F
:10047C0070106208F00763080318013EF107E030C2
:10048C00F0070C300318013EF1077008E00071080A
:10049C00E10003208A110A1286006208583E84008B
:1004AC0000088800A630FD00FD0B5A2A00008801C8
:0A04BC00E20A0319E30A2A2A0800E5
:1004C60083120313E201E30100306302031D6D2A68
:1004D600083062020318A82A6808F0006908F100CB
:1004E600F00DF10D7010F00DF10D7010F00DF10D15
:1004F600701062087007F30071080318013E630765
:10050600F4007308F0007408F100F00DF10D70109E
:100516000030F00708300318013EF1077008E000CC
:100526007108E10003208A110A1286006208583E0B
:10053600840000088800A630FD00FD0BA02A0000FC
:0C0546008801E20A0319E30A672A080092
:1005520083120313E201E30100306302031DB32A95
:10056200083062020318E52A6808F0006908F10001
:10057200F00DF10D7010F00DF10D7010F00DF10D88
:1005820070106208F00763080318013EF10700309B
:10059200F0070B300318013EF1077008E000710804
:1005A200E10003208A110A1286006208583E840084
:1005B20000088800A630FD00FD0BDD2A000088013E
:0A05C200E20A0319E30AAD2A08005B
:1005CC0083120313E201E30100306302031DF02ADE
:1005DC00083062020318222B6808F0006908F10049
:1005EC00F00DF10D7010F00DF10D7010F00DF10D0E
:1005FC0070106208F00763080318013EF107F83029
:10060C00F00710300318013EF1077008E000710884
:10061C00E10003208A110A1286006208583E840009
:10062C0000088800A630FD00FD0B1A2B0000880185
:0A063C00E20A0319E30AEA2A0800A3
:10064600A53083120313FD00FD0B272B00000000CD
:0206560008009A
:1006580083120313E201E30100306302031D362B0A
:100668000830620203185D2B62086807F000690809
:100678000318013E6307F100A030F0070F3003189C
:10068800013EF1077008E0007108E10003208A11BB
:100698000A1286006208583E840000088800A630C6
:1006A800FD00FD0B552B00008801E20A0319E30A3F
:0406B800302B0800DB
:1006BC0083120313E201E30100306302031D682B74
:1006CC000830620203189A2B6808F0006908F100E0
:1006DC00F00DF10D7010F00DF10D7010F00DF10D1D
:1006EC0070106208F00763080318013EF1073730F9
:1006FC00F00707300318013EF1077008E00071089D
:10070C00E10003208A110A1286006208583E840018
:10071C0000088800A630FD00FD0B922B000088011C
:0A072C00E20A0319E30A622B080039
:1007360083120313E201E30100306302031DA52BBC
:10074600083062020318D72B6808F0006908F10028
:10075600F00DF10D7010F00DF10D7010F00DF10DA2
:1007660070106208F00763080318013EF10798301D
:10077600F0070D300318013EF1077008E00071081C
:10078600E10003208A110A1286006208583E84009E
:1007960000088800A630FD00FD0BCF2B0000880165
:0A07A600E20A0319E30A9F2B080082
:1007B00083120313EA01EB0100306B02031DE22BED
:1007C00014306A020318E92B9B23EA0A0319EB0A87
:0407D000DC2B080016
:1007D40083120313EA01EB0100306B02031DF42BB7
:1007E40028306A020318FB2B6322EA0A0319EB0A76
:0407F400EE2B0800E0
:1007F80083120313EA01EB0100306B02031D062C80
:1008080014306A0203180D2CC120EA0A0319EB0AF6
:04081800002C0800A8
:10081C0083120313EA01EB0100306B02031D182C49
:10082C0014306A0203181F2C5E23EA0A0319EB0A20
:04083C00122C080072
:1008400083120313EA01EB0100306B02031D2A2C13
:1008500032306A020318312C2622EA0A0319EB0A05
:04086000242C08003C
:1008640083120313EA01EB0100306B02031D3C2CDD
:1008740032306A020318432CA922EA0A0319EB0A4C
:04088400362C080006
:1008880083120313EA01EB0100306B02031D4E2CA7
:1008980028306A020318552CB521EA0A0319EB0A15
:0408A800482C0800D0
:1008AC0083120313EA01EB0100306B02031D602C71
:1008BC001E306A020318672C7821EA0A0319EB0A26
:0408CC005A2C08009A
:1008D00083120313EA01EB0100306B02031D722C3B
:1008E00014306A020318792CE622EA0A0319EB0A8B
:0408F0006C2C080064
:1008F40083120313EA01EB0100306B02031D842C05
:1009040032306A0203188B2CFE20EA0A0319EB0A20
:040914007E2C08002D
:1009180083120313EA01EB0100306B02031D962CCE
:1009280032306A0203189D2C0A20EA0A0319EB0ADE
:04093800902C0800F7
:10093C0083120313EA01EB0100306B02031DA82C98
:10094C0028306A020318AF2C3B21EA0A0319EB0A80
:04095C00A22C0800C1
:1009600003208A110A128000840AE00A0319E10AAE
:08097000F003031DB02C080088
:1009780083120313EA01EB0100306B02031DC62C3E
:1009880014306A020318CD2C2C23EA0A0319EB0A47
:04099800C02C080067
:10099C0083120313EA01EB0100306B02031DD82C08
:1009AC0014306A020318DF2C8420EA0A0319EB0ABC
:0409BC00D22C080031
:1009C00083120313EA01EB0100306B02031DEA2CD2
:1009D00028306A020318F12C4720EA0A0319EB0AAF
:0409E000E42C0800FB
:1009E40083120313EF016B08F1000130F00071086A
:1009F4000319002DF00D7010FF3EFA2C7008EE0064
:100A04006A08840070080005F10071080130031DB4
:100A14000030F0006D08F0060319282D6C08003C26
:100A24000318182D23232323EC03102D6A088400B4
:100A34006E080005F10071080130031D0030F0005C
:100A44006D08F0060319282DFF30EF006F08F00041
:020A5400080098
:100A560083120313EA01EB0100306B02031D352DEF
:100A660014306A0203183C2DF221EA0A0319EB0A34
:040A76002F2D080018
:100A7A000A1640210A1201308316031387008601E1
:100A8A0088018312E801E901E401E501E601E701D1
:100A9A0000306702031D532D5830660203185E2D7D
:100AAA006608E8006708E900BC24E60A0319E70AB1
:100ABA004D2D0730EA00EB010130EC000130ED006A
:100ACA00F224700803196C2DE40A0319E50A640874
:100ADA00650403197A2D0730EA00EB010130EC00B6
:100AEA00ED01F224700803197A2D1A30FC00F8304F
:100AFA00FD00FD0B7E2DFC0B7E2D0000B22E880121
:100B0A00322FE601E70100306702031D8E2D073000
:100B1A0066020318992D6608E8006708E9002B2584
:100B2A00E60A0319E70A882D322FE601E7010030A9
:100B3A006702031DA22D063066020318AD2D660852
:100B4A00E8006708E900FC23E60A0319E70A9C2D76
:100B5A00322FE601E70100306702031DB62D093086
:100B6A0066020318C12D6608E8006708E900CE246A
:100B7A00E60A0319E70AB02D322FE601E701003031
:100B8A006702031DCA2D153066020318D52D6608A3
:100B9A00E8006708E900D823E60A0319E70AC42D22
:100BAA00322FE601E70100306702031DDE2D053012
:100BBA0066020318E92D6608E8006708E900682458
:100BCA00E60A0319E70AD82D322FE601E7010030B9
:100BDA006702031DF22D1E3066020318FD2D6608FA
:100BEA00E8006708E9003224E60A0319E70AEC2D4F
:100BFA00322FE601E70100306702031D062E173087
:100C0A0066020318112E6608E8006708E900202426
:100C1A00E60A0319E70A002E322FE601E70100303F
:100C2A006702031D1A2E193066020318252E66085C
:100C3A00E8006708E9000E24E60A0319E70A142EF9
:100C4A00322FE601E70100306702031D2E2E3030F5
:100C5A0066020318392E6608E8006708E900EA23E5
:100C6A00E60A0319E70A282E322FE601E7010030C7
:100C7A006702031D422E1030660203184D2E6608C5
:100C8A00E8006708E9009E24E60A0319E70A3C2EF1
:100C9A00322FE601E70100306702031D562E10309D
:100CAA0066020318612E6608E8006708E900E02476
:100CBA00E60A0319E70A502E322FE601E70100304F
:100CCA006702031D6A2E1E3066020318752E660817
:100CDA00E8006708E9004424E60A0319E70A642ED3
:100CEA00322FE601E70100306702031D7E2E08302D
:100CFA0066020318892E6608E8006708E900562488
:100D0A00E60A0319E70A782E322FE601E7010030D6
:100D1A006702031D922E0430660203189D2E660890
:100D2A00E8006708E9008C24E60A0319E70A8C2E12
:100D3A00322FE601E70100306702031DA62E0C30B0
:100D4A0066020318B12E6608E8006708E9007A24EB
:100D5A00E60A0319E70AA02E322F00306506031DA2
:100D6A00B82E003064060319842D00306506031D71
:100D7A00C02E013064060319862D00306506031D56
:100D8A00C82E0230640603199A2D00306506031D29
:100D9A00D02E033064060319AE2D00306506031DFC
:100DAA00D82E043064060319C22D00306506031DCF
:100DBA00E02E053064060319D62D00306506031DA2
:100DCA00E82E063064060319EA2D00306506031D75
:100DDA00F02E073064060319FE2D00306506031D48
:100DEA00F82E083064060319122E00306506031D1A
:100DFA00002F093064060319262E00306506031DEC
:100E0A00082F0A30640603193A2E00306506031DBE
:100E1A00102F0B30640603194E2E00306506031D91
:100E2A00182F0C3064060319622E00306506031D64
:100E3A00202F0D3064060319762E00306506031D37
:100E4A00282F0E30640603198A2E00306506031D0A
:0E0E5A00302F0F30640603199E2E5E2D332FAD
:1022800020308400403083120313F0008830E000D7
:0C2290001030E1000A12B0240A16080009
:100E6E00813481348134C334C1348134813481344A
:100E7E00813481348134C934C13481348134813434
:100E8E00813481348134D134C1348134813481341C
:100E9E00813481348134E134C134813481348134FC
:100EAE00813481348134C134D134813481348134FC
:100EBE00813481348134C134C134893481348134F4
:100ECE00813481348134C134C134813485348134E8
:100EDE00813481348134C134C134813481348334DA
:100EEE00813481348134C134C134853481348134C8
:100EFE00813481348134C134C934813481348134B4
:100F0E008134C134C134913481348134813481349B
:100F1E008134C134E134813481348134813481347B
:100F2E008134D134C134813481348134813481347B
:100F3E008934C134C1348134813481348134813473
:100F4E008134C534C1348134813481348134813467
:100F5E008134C134C3348134813481348134813459
:100F6E008134C134C1348334813481348134813449
:100F7E0081348134C134C134853481348134813437
:100F8E00813481348134C134C13489348134813423
:100F9E0081348134813481348134C134D13481340B
:100FAE00813481348134813481348134E134C134EB
:100FBE00813481348134813481349134C134C134EB
:100FCE00813481348134853481348134C134C134E7
:100FDE00813481348134853481348134C134C134D7
:100FEE00813481348334813481348134C134C134C9
:10100000003400340034003400340034013400343F
:10101000013400340134003400340034003400342E
:10102000003400340034003400340034043400341C
:101030000434003404340034003400340034003408
:101040000034003400340034003400340034003400
:1010500000340034043400340434003404340034E4
:1010600000340034003400340034003400340034E0
:1010700000340034103400341034003410340034A0
:1010800000340034003400340034003403340034BD
:10109000013400348134003480340034803400342E
:1010A0000034003400340034003400340C34003494
:1010B0000434003484340034803400348034003408
:1010C0000034003400340034003400340034003480
:1010D0000C340034843400348434003480340034DC
:1010E0000034003400340034003400340034003460
:1010F0003034003490340034903400348034003480
:10110000003400340034003400340034003400343F
:10111000C0340034C0340034C0340034803400346F
:10112000003400340034003400340034033400341C
:10113000C3340034C0340034C0340034803400344C
:101140000034003400340034003400340C340034F3
:10115000CC340034C0340034C03400348034003423
:10116000003400340034003430340034303400347F
:10117000C0340034C0340034C0340034803400340F
:101180000034003400340034C0340034C03400343F
:10119000C0340034C0340034C034003480340034EF
:1011A0000034003400340034C2340034C33400341A
:1011B000C1340034C0340034C034003480340034CE
:1011C0000034003400340034C4340034C6340034F5
:1011D000C2340034C0340034C034003480340034AD
:1011E0000034003400340034C0340034C6340034D9
:1011F000CC340034C0340034C03400348034003483
:101200000034003400340034C0340034C0340034BE
:10121000C0340034C6340034CC340034803400345C
:101220000034003400340034C0340034C03400349E
:10123000C0340034C0340034C63400348C3400343C
:101240000034003400340034C0340034C03400347E
:10125000C0340034C0340034D8340034B0340034E6
:101260000034003400340034C0340034C23400345C
:10127000C2340034C3340034F0340034E034003479
:101280000034003400340034C0340034C834003436
:10129000C8340034CC340034F0340034E03400344A
:1012A0000034003400340034C0340034E0340034FE
:1012B000E0340034F0340034F0340034E0340034EE
:1012C0000034003400340034C1340034E1340034DC
:1012D000E1340034F0340034F0340034E0340034CD
:1012E0000034003400340034C2340034E2340034BA
:1012F000E2340034F0340034F0340034E0340034AC
:101300000034003400340034C0340034EE3400348F
:10131000E0340034F0340034F0340034E03400348D
:10132000003400340E340034C0340034E03400346F
:10133000E0340034F0340034F0340034E03400346D
:101340001C34003400340034C0340034E034003441
:10135000E0340034F0340034F0340034E03400344D
:10136000E034003400340034C0340034E03400345D
:10137000E0340034F0340034F0340034E03400342D
:10138000E034003400340034C1340034E13400343B
:10139000E3340034F0340034F0340034E03400340A
:1013A000E034003400340034C2340034E234003419
:1013B000E6340034F0340034F0340034E0340034E7
:1013C000E034003400340034C0340034EE340034EF
:1013D000E2340034F0340034F0340034E0340034CB
:1013E000E03400341C340034C4340034E0340034BD
:1013F000E0340034F0340034F0340034E0340034AD
:10140000E034003470340034D0340034E03400343C
:10141000E0340034F0340034F0340034E03400348C
:10142000E0340034E0340034E0340034E03400349C
:10143000E0340034F0340034F0340034E03400346C
:10144000E0340034E0340034E0340034E03400347C
:10145000E3340034F6340034F0340034E034003443
:10146000E0340034E0340034E0340034E03400345C
:10147000E4340034F6340034F2340034E034003420
:10148000E0340034E0340034E0340034E434003438
:10149000E6340034F2340034F0340034E034003404
:1014A000E0340034E0340034E0340034F03400340C
:1014B000F0340034F8340034F8340034E0340034CC
:1014C000E0340034E0340034E0340034F2340034EA
:1014D000F2340034FB340034F8340034E0340034A7
:1014E000E0340034E0340034E0340034F0340034CC
:1014F000F1340034FF340034F8340034E034003484
:10150000E0340034E0340034E0340034F0340034AB
:10151000F0340034F8340034FA340034EE3400345B
:10152000E0340034E0340034E0340034F03400348B
:10153000F0340034F8340034FC340034FC3400342B
:10154000E0340034E0340034E0340034F03400346B
:10155000F3340034FB340034FC340034FC34003405
:10156000E0340034E0340034E0340034F634003445
:10157000F6340034F8340034FC340034FC340034E5
:10158000E0340034E0340034E0340034FC3400341F
:10159000FC340034F8340034FC340034FC340034BF
:1015A000E0340034E0340034E0340034FD340034FE
:1015B000FF340034F9340034FC340034FC3400349B
:1015C000E0340034E0340034E0340034FC340034DF
:1015D000FD340034FB340034FD340034FC3400347A
:1015E000E0340034E0340034E0340034FD340034BE
:1015F000FF340034FF340034FE340034FC34003453
:101600000034003400341834183404340234003404
:1016100000340034003418341834083404340034EE
:1016200000340034003418341834083408340034DA
:1016300000340034003418341834083410340034C2
:1016400000340034003418341834103410340034AA
:10165000003400340034183418341034203400348A
:10166000003400340034183418342034403400344A
:10167000003400340034183438344034003400343A
:10168000003400340034183478340034003400342A
:10169000003400340034583438340034003400341A
:1016A000003400340034783418340034003400340A
:1016B00000340034403438341834003400340034FA
:1016C00000344034203418341834003400340034EA
:1016D000003420341034183418340034003400340A
:1016E000003410341034183418340034003400340A
:1016F0000034083410341834183400340034003402
:1017000000340834083418341834003400340034F9
:1017100000340434083418341834003400340034ED
:1017200000340234043418341834003400340034E3
:101730000034003402341C341834003400340034D3
:101740000034003400341E341834003400340034C3
:101750000034003400341C341A34003400340034B3
:1017600000340034003418341E34003400340034A3
:1017700000340034003418341C3402340034003493
:101780000034003400341834183404340234003483
:10179000003400340034183418340834043400346D
:1017A0000034003400341834183408340834003459
:1017B0000034003400341834183408341034003441
:1017C0000034003400341834183410341034003429
:1017D0000034003400340034003400340034003469
:1017E0002934043455348C34A93444341634403408
:1017F0002934043455348C34A934443416344134F7
:101800002934043455348C34A934443416344434E3
:101810002934043455348C34A934443416344834CF
:101820002934043455348C34A934443416346034A7
:101830002934043455348C34A93444343634403497
:101840002934043455348C34A93444349634403427
:101850002934043455348C34A934C4341634403417
:101860002934043455348C34A93444349634403407
:101870002934043455348C34A93444343634403457
:101880002934043455348C34A93464341634403447
:101890002934043455348C34A93454341634403447
:1018A0002934043455349C34A93444341634403437
:1018B000293404345534AC34A93444341634403417
:1018C000293404345534CC34A934443416344034E7
:1018D0002934043455348C34E934443416344034D7
:1018E000293404345534CC34A934443416344034C7
:1018F000293404345534AC34A934443416344034D7
:101900002934243455348C34A934443416344034C6
:1019100029340C3455348C34A934443416344034CE
:10192000293404345D348C34A934443416344034BE
:101930002934143455348C34A934443416344034A6
:101940003934043455348C34A93444341634403496
:101950002934143455348C34A93444341634403486
:101960002934243455348C34A93444341634403466
:101970002934443455348C34A93444341634403436
:101980002934843455348C34A934443416344034E6
:1019900029340434D5348C34A934443416344034D6
:1019A0002934843455348C34A934443416344034C6
:1019B000A934043455348C34A934443416344034B6
:1019C0007034003400340034003400340234003405
:1019D0001C34003400340034003400340234003449
:1019E0000E34003400340034003400340234003447
:1019F000063402340034003400340034023400343D
:101A0000023402340234003400340034023400342E
:101A1000003400340234023402340034023400341E
:101A2000003400340034023402340234023400340E
:101A300000340034003402340234223402340034DE
:101A400000340034003400340234223406340034CC
:101A50000034003400340034003422340E340034B6
:101A60000034003400340034003420341E34003498
:101A70000034003400340034003420343C3400346A
:101A8000003400340034003420342034383400343E
:101A9000013400340034003420342034383400342D
:101AA0000134003420342034203420340034003415
:101AB0002134203420342034003400340034003405
:101AC000393420340034003400340034003400341D
:101AD0001F34003400340034003400340034003447
:101AE000073403340034003440340034003400340C
:101AF00001340F34003400344034003400340034F6
:101B000000343E34003400344034003400340034B7
:101B1000003478344034003440340034003400342D
:101B200000347034403440344034003400340034E5
:101B30000F340034003400340034003400340034F6
:101B4000FF340034003400340034003400340034F6
:101B5000FF34803480348034003400340034003466
:101B6000FF34803480348034803480348034803456
:101B7000FF34803480348034803480348034F034D6
:101B8000FF34803480348034803480348034FF34B7
:101B9000FF34803480348034813481348134FF34A4
:101BA000FF34813481348134813481348134FF3491
:101BB000FF348F3481348134813481348134FF3473
:101BC000FF34FF3481348134813481348134FF34F3
:101BD000FF34FF34C134C134C13481348134FF3423
:101BE000FF34FF34C134C134C134C134C134FF3493
:101BF000FF34FF34C134C134C134C134F934FF344B
:101C0000FF34FF34C134C134C134C134FF34FF3434
:101C1000FF34FF34C134C334C334C334FF34FF341E
:101C2000FF34FF34CF34C334C334C334FF34FF3400
:101C3000FF34FF34FF34E334C334C334FF34FF34A0
:101C4000FF34FF34FF34E334E334F334FF34FF3440
:101C5000FF34FF34FF34E334E734FF34FF34FF3420
:101C6000FF34FF34FF34EF34E734FF34FF34FF3404
:101C7000FF34FF34FF34FF34FF34FF34FF34FF34CC
:101C8000FF34FF34FF34E734E734FF34FF34FF34EC
:101C9000FF34FF34FF34E734E734DF34FF34FF34FC
:101CA000FF34FF34DF34E734E734DF34FF34FF340C
:101CB000FF34FF34DB34E734E734DF34FF34FF3400
:101CC000FF34FF34DB34E734E734DB34FF34FF34F4
:101CD000FF34FF34DB34E734E734DB34BF34FF3424
:101CE000FF34BF34DB34E734E734DB34BF34FF3454
:101CF000FF34BD34DB34E734E734DB34BF34FF3446
:101D0000FF34BD34DB34E734E734DB34BD34FF3437
:101D1000FF34BD34C334C334C334C334BD34FF349F
:101D2000FF34BD34C334C334C334C334BD347F340F
:101D30007F34BD34C334C334C334C334BD347F347F
:101D40007E34BD34C334C334C334C334BD347F3470
:101D50007E34BD34C334C334C334C334BD347E3461
:101D60004234BD344234423442344234BD344234CD
:101D7000BD344234BD34BD34BD34BD344234BD34D1
:101D8000813442348134003400348134423481342B
:101D90007E34BD347E34FF34FF347E34BD347E3433
:101DA0004234243442340034003442342434423443
:101DB000BD34DB34BD34FF34FF34BD34DB34BD34DB
:101DC00024341834243400340034243418342434B3
:101DD000DB34E734DB34FF34FF34DB34E734DB342B
:101DE0002434183424341834183424341834243463
:101DF000DB34E734DB34E734E734DB34E734DB343B
:101E00004234C3340034003400340034C334423428
:101E1000BD343C34FF34FF34FF34FF343C34BD3434
:101E200000342434663400340034663424340034FE
:101E3000FF34DB349934FF34FF349934DB34FF341E
:101E40000034003418343C343C341834003400344A
:101E5000FF34FF34E734C334C334E734FF34FF3492
:101E6000813442343C343C343C343C34423481345C
:101E70007E34BD34C334C334C334C334BD347E3440
:101E80000034003400341834183400340034003482
:101E9000003400342434183418342434003400342A
:101EA0000034423424341834183424344234003496
:101EB0008134423424341834183424344234813484
:101EC000813442343C343C343C343C3442348134FC
:101ED00081347E347E347E347E347E347E3481346C
:101EE000FF34FF34FF34FF34FF34FF34FF34FF345A
:101EF0007E348134813481348134813481347E3440
:101F00007E34BD34C334C334C334C334BD347E34AF
:101F10007E34BD34DB34E734E734DB34BD347E3427
:101F2000FF34BD34DB34E734E734DB34BD34FF3415
:101F3000FF34FF34DB34E734E734DB34FF34FF3481
:101F400000340034003400340034003400340034F1
:101F50007F347F340E341C340E347F347F340034AD
:101F60003E347E34803480347E34FE348034003419
:101F700044347C3478344C3404341C341834003405
:101F800020347634523452343C347C34403400347F
:101F9000003404343E347F34443424340034003478
:101FA0000034003400340034003400340034003491
:101FB000003426346F34CD34D934733432340034A1
:101FC00000347F347F344934493449344134003457
:101FD0007F347F3406340C3418347F347F3400343B
:101FE0000034003400340034003400340034003451
:102000000034FF348134803480348134FF34003430
:102010000034FF348134803480348134FF34003420
:102020000034FF34C134C034C034C134FF34003410
:102030000034FF34E134E034E034E134FF34003480
:102040000034FF34F134F034F034F134FF34003430
:102050000034FF34F934F834F834F934FF34003400
:102060000034FF34FD34FC34FC34FD34FF340034E0
:102070000034FF34FF34FE34FE34FF34FF340034C8
:102080000034FF34FF34FF34FF34FF34FF340034B6
:102090005534AA345534AA345534AA345534AA34A4
:1020A000AA345534AA345534AA345534AA34553494
:1020B000AB34D534D534AB34D534AB34AB34D53480
:1020C00054342A342A3454342A34543454342A3478
:1020D0005534AA345534AA3454345534AA345534BA
:1020E000AA345534AA345534AB34AA345534AA34FE
:1020F00000344234A534563400345634A5344234C6
:10210000FF34BD345A34A934FF34A9345A34BD34B1
:10211000FF34813481348134813481348134FF341B
:10212000FF34FF34C334C334C334C334FF34FF3407
:10213000FF34FF34FF34E734E734FF34FF34FF3437
:10214000FF34FF34FF34FF34FF34FF34FF34FF34F7
:10215000FF34813481348134813481348134FF34DB
:10216000FF34FF34FF34E734E734FF34FF34FF3407
:10217000FF34FF34C334C334C334C334FF34FF34B7
:1021800001340234043408341034203440348034B0
:102190007E348134A53499348134A53481347E343D
:1021A0007E348134BD3481348134A53481347E342D
:1021B0007E3481349934A5348134A53481347E341D
:1021C0007E3481349934A5348134A13481347E3411
:1021D0007E3481349934A5348134A53481347E34FD
:1021E0007E349934A53499348134A53481347E34D5
:1021F000FF34423424342434243424344234FF342D
:102200008134C334FD34F934F934FD34C3348134BA
:10221000FF347E343C343C343C3424344234FF3488
:102220008134C334BF349F349F34BF34C3348134CA
:10223000FF34423424343C343C343C347E34FF3468
:10224000083408340834083408343E341C34083464
:10225000003404340634FF340634043400340034CB
:1022600008341C343E340834083408340834083444
:10227000003420346034FF346034203400340034BF
:02400E004A2F37
:00000001FF
